{
  "_format": "hh-sol-artifact-1",
  "contractName": "PermissionLib",
  "sourceName": "@aragon/osx/core/permission/PermissionLib.sol",
  "abi": [
    {
      "inputs": [],
      "name": "NO_CONDITION",
      "outputs": [
        {
          "internalType": "address",
          "name": "",
          "type": "address"
        }
      ],
      "stateMutability": "view",
      "type": "function"
    }
  ],
  "bytecode": "0x6091610038600b82828239805160001a607314602b57634e487b7160e01b600052600060045260246000fd5b30600052607381538281f3fe730000000000000000000000000000000000000000301460806040526004361060335760003560e01c80636dd02a5b146038575b600080fd5b603f600081565b6040516001600160a01b03909116815260200160405180910390f3fea264697066735822122067484b8728f8defdd9f156ce86a7569317192b8fad49184a459bed331c9810da64736f6c63430008130033",
  "linkReferences": {},
  "deployedLinkReferences": {}
}